:100000000C9436000C945E000C945E000C945E0020
:100010000C945E000C945E000C945E000C945E00E8
:100020000C945E000C945E000C945E000C94D70758
:100030000C945E000C945E000C945E000C945E00C8
:100040000C945E000C945E000C94DD070C945E0032
:100050000C945E000C945E000C945E000C945E00A8
:100060000C945E000C945E00FC01C70811241FBEB6
:10007000CFEFD8E0DEBFCDBF11E0A0E0B1E0E8E017
:10008000F3E102C005900D92A237B107D9F722E043
:10009000A2E7B1E001C01D92A331B207E1F710E081
:1000A000C6E3D0E004C02197FE010E942409C433B6
:1000B000D107C9F70E9468080C9454090C940000F9
:1000C000E62FF0E0A82FB0E09D01220F331F24702F
:1000D000AD01440F551F440F551F4071242B8170F3
:1000E000282BAA0FBB1FAA0FBB1FAA0FBB1FA074F0
:1000F0002A2B220FAF01440F551F4470CF01880FE8
:10010000991F880F991F8071842B6170862BEE0FC9
:10011000FF1FEE0FFF1FEE0FFF1FE0748E2B822BD1
:100120000895219A209AE4E6F0E080818B7F808315
:1001300084B18C6284B985B1837D85B980E78CBD3B
:100140000895289A08952898089585B191E08927FF
:1001500085B90895299A0895299808950E94AA00BA
:100160002FEF81EE94E0215080409040E1F700C0F5
:1001700000000E94AC002FEF81EE94E021508040FF
:100180009040E1F700C000000E94AA002FEF81EE2E
:1001900094E0215080409040E1F700C000000E94B0
:1001A000AC002FEF81EE94E0215080409040E1F7C9
:1001B00000C000000E94AA002FEF81EE94E02150C1
:1001C00080409040E1F700C000000E94AC0008951C
:1001D0001F93CF93DF93182FC62F2A980E94600099
:1001E000D82F6C2F70E07595679575956795759507
:1001F000679575956795812F82958F700E94600035
:1002000090917301D91791F0D0937301809372018B
:10021000DEBD0DB407FEFDCF8EBD0DB407FEFDCFD4
:100220002A9A2A98DF91CF911F9108959091720197
:100230008913EACFF7CF982F882339F080E0292F50
:100240002170820F9695D9F708950895CF93DF9383
:10025000E9E7F1E020EB31E068E270E0C0EDD7E0E3
:100260000EC099B14181942371F49081983288F045
:100270009C91983289F03596E217F30789F1DF01F6
:100280009281891771F39C919923A9F391509C93C2
:10029000F2CF9F5F9083ECCF409174015091750134
:1002A0004A175B0749F07093770160937601B0932A
:1002B0007501A0937401DFCF4091760150917701D1
:1002C0004F5F5F4F413D97E0590728F45093770106
:1002D00040937601D0CFD0937701C0937601CBCFF6
:1002E000DF91CF9108958BB1886F8BB9089589B153
:1002F000887F0E941B0195E0292F281B981305C0B9
:10030000E9E7F1E020EB31E008C0822F0E942601EE
:1003100008953596E217F30731F080818823C9F3F9
:1003200081508083F6CF0895E9E7F1E020EB31E0DA
:1003300050E091E040E061E004C035962E173F07A1
:1003400041F080818823C9F3942F8832B1F7562F6A
:10035000F4CF9923A1F080917601909177018135B6
:10036000910528F181E08093780110927701109235
:100370007601E0917401F091750183810895552310
:10038000C1F08091760190917701803D974011F006
:1003900080E2089581E080937801109277011092B5
:1003A0007601E0917401F09175018481089580E2F5
:1003B000089580E20895E9E7F1E020EB31E08081E3
:1003C00081110EC03596E217F307C9F71092780134
:1003D00010927701109276011092750110927401BB
:1003E00080E2089580917801811103C00E949401F8
:1003F00008950E94DB0108951F93CF93DF93C9E70F
:10040000D1E0188280E589830E941B018A838AE0FB
:100410008B838AE88C831D8280EA8E830E941B0175
:100420008F838BE088878BE889871A8618E01B8783
:1004300088E00E941B018C871D8788E88E871F86B5
:1004400088E1888B0E941B01898B1A8A10E81B8B1C
:100450001C8A80E18D8B0E941B018E8B81E08F8B2B
:1004600081E8888F198E80E38A8F0E941B018B8F11
:1004700082E08C8F82E88D8F1E8E80E28F8F0E94AB
:100480001B0188A383E089A383E88AA31BA280E6DB
:100490008CA30E941B018DA384E08EA384E88FA30C
:1004A00018A680E489A70E941B018AA785E08BA774
:1004B00085E88CA71DA680EC8EA70E941B018FA744
:1004C00086E088AB86E889AB1AAA1BAB80E80E945D
:1004D0001B018CAB87E08DAB87E88EABDF91CF91B2
:1004E0001F910895CF93DF93C82FD92FCE010E947B
:1004F0007E049983888381E08A8393E09B839C8335
:100500008D831E8282E090E00E943E098F8381E00D
:1005100090E00E943E098F70888780E090E00E9402
:100520003E098F778987DF91CF910895CF93DF932D
:10053000A82FB92F462F603259F08D919C911197B9
:10054000EC01E881F9810190F081E02DBD01099570
:10055000DF91CF910895E82FF92F462F572FBF0134
:10056000808191810E943F040895CF93DF93C82F2B
:10057000D92F8A818823C9F06F818D810E94E8007C
:100580000E94AC0088819981DC01ED91FC9104808E
:10059000F581E02D0995882379F08150823010F49F
:1005A0000E94A100DF91CF91089560E08D810E94AB
:1005B000E8000E94AA00E6CF0E94A300F3CFCF93E9
:1005C000DF93C82FD92F8E8181110EC08881998128
:1005D000DC01ED91FC910480F581E02D09958230DC
:1005E00051F0DF91CF9108959D8189278D83CE01B0
:1005F0000E94B502EBCF0E94A500F3CFFC018085DD
:1006000008956F70FC01608781E090E00E944609C8
:100610000895FC01818508956F77FC01618780E072
:1006200090E00E9446090895E82FF92F81E090E0BC
:1006300002C0880F991F6A95E2F767816827678370
:1006400082E090E00E9446090895FC01678382E001
:1006500090E00E9446090895EF92FF921F93CF9376
:10066000DF9300D00F92CDB7DEB7E82EF92E162F0C
:100670006031C8F4E62FF0E0E050FF4F8081F701D1
:100680008383411113C0812F0E94D908682FC701AD
:100690000E9425030F900F900F90DF91CF911F9133
:1006A000FF90EF900895F7011382EBCFF70180855B
:1006B000806C89831A831B82CE0101960E94F80800
:1006C000E2CFE62FF72F8481838385758583168299
:1006D0000895E62FF72F848183831682158208956B
:1006E000E62FF72F84818383868385830895E62F01
:1006F000F72F168283818483858308951F93CF9378
:10070000DF93C62FD72F8C818B83CE010E94FE02F0
:10071000182FCE010E9409031E82A12FB0E0E82FFE
:10072000F0E0F595E795F595E795F595E7956E2F4A
:100730006F7070E09D01220F331F2470CD01880F70
:10074000991F880F991F8071282B1170212BAA0FD8
:10075000BB1FAA0FBB1FAA0FBB1FA0742A2B220FFF
:10076000AB01440F551F4470CB01880F991F880FB0
:10077000991F8071482BE1704E2B660F771F660F13
:10078000771F660F771F6074462B242B2D83DF9114
:10079000CF911F910895E62FF72F93818481892BA4
:1007A00085839683CF010E94B5020895CF92DF9290
:1007B000EF92FF920F931F93CF93DF93E62EF72EC6
:1007C000C42ED52ED0E0C0E0F601018110E0C701B3
:1007D0000E9409038C0F9D2F911D0817190769F0BE
:1007E0002196C830D10581F7DF91CF911F910F91EC
:1007F000FF90EF90DF90CF900895F601828186FF01
:1008000010C081E090E0AC0102C0440F551FCA95B2
:10081000E2F7F7018781842B8783C7010E94B50225
:10082000E3CF81E090E002C0880F991FCA95E2F7FC
:100830008095F701978189238783EFCF282F26950D
:100840002575857592E0803139F093E0803421F090
:1008500091E0843009F090E0892F90E0880F991F93
:10086000880F991F32E0203139F033E0203421F035
:1008700031E0243009F030E0832B0895FFCFDF9280
:10088000EF92FF920F931F93CF93DF93E82EF92EF1
:10089000D62EC72F042F152FD801DC91862F972F26
:1008A0000E94FE02806C8D1789F0F801D0818D2D99
:1008B0009C2F0E94FE02806B8D17A1F0DF91CF91DB
:1008C0001F910F91FF90EF90DF900895D701ED9168
:1008D000FC910680F781E02DA8016D2D7C2FC701CA
:1008E0000995ECCFD701ED91FC910084F185E02DC5
:1008F000A8016D2D7C2FC7010995E0CF8091E20101
:10090000811109C084E191E09093EB018093EA01A9
:1009100081E08093E2018AEE91E00895CF93DF9326
:10092000C62FD72F4830B0F04A38D9F4CE010E94F4
:100930007E04A82FB92FB983A883ED91FC9111975C
:100940000280F381E02DBE01CD010995CE010E9408
:10095000B50207C0642FCE010E941403CE010E948D
:10096000B502DF91CF910895CF93DF93C62FD72F94
:100970006F81FA0181810E94E0080E94AE00CE01E1
:100980000E947E04A82FB92FB983A883ED91FC9112
:1009900011970280F381E02DBE01CD010995CE01B2
:1009A0000E94B502DF91CF9108958091D801811105
:1009B00009C082E291E09093E1018093E00181E03F
:1009C0008093D80180EE91E008958091CE0181114D
:1009D00009C080E391E09093D7018093D60181E034
:1009E0008093CE0186ED91E008958091C40181113C
:1009F00009C08CE491E09093CD018093CC0181E01B
:100A00008093C4018CEC91E00895CF93DF93C62FBF
:100A1000D72FE42F842F90E04B38A8F4442344F4DC
:100A2000E058EB3080F4F0E0EA5AF64F0C942409D9
:100A3000483060F0483039F48A8191E089278A8310
:100A4000CE010E94B502DF91CF910895642FCE01AF
:100A50000E941403CE010E94B502F5CF2C812A7AA0
:100A60008F7741E050E0BA0102C0660F771F8A9588
:100A7000E2F7CB01822B8C8388819981DC01ED9197
:100A8000FC910280F381E02DBE010995CE010E9408
:100A9000B502D9CF2C8125758F7741E050E0BA019E
:100AA00002C0660F771F8A95E2F7CB01822B8C83F9
:100AB0008D83CE010E94B5028C810E941E046F813D
:100AC0000E94E0080E94AE0088819981DC01ED91CE
:100AD000FC910280F381E02DBE010995CE010E94B8
:100AE000B502B1CFCE010E94F504A82FB92FB9836A
:100AF000A883ED91FC9111970280F381E02DBE0156
:100B0000CD010995CE010E94B5029DCFCE010E9474
:100B1000D504A82FB92FB983A883ED91FC91119723
:100B20000280F381E02DBE01CD010995CE010E9426
:100B3000B50289CF8091BA01811109C08AE591E09F
:100B40009093C3018093C20181E08093BA0182EC4B
:100B500091E00895CF93DF93C62FD72F483048F404
:100B6000E42F483008F045C0F0E0EF59F64F0C9400
:100B700024094B38F1F5CE010E949A05A82FB92F10
:100B8000B983A883ED91FC9111970280F381E02D48
:100B9000BE01CD010995CE010E94B5022AC061E0D7
:100BA00070E002C0660F771F4A95E2F74D81462735
:100BB0004D83242F30E0C9019595879595958795AC
:100BC000959587958870B901759567957595679521
:100BD0006470682B4170642B359527952270622BC9
:100BE000660F660F660FCE010E940C03CE010E94B5
:100BF000B502DF91CF91089561E070E002C0660F09
:100C0000771F4A95E2F78D8186278D83682F62953D
:100C10006F706870982F9695969596959470692B3D
:100C2000982F969596959270692B86958170682B72
:100C3000CE010E940103CE010E94B502DACFCF930C
:100C4000DF93C62FD72FFA0161816F7740E0CE0185
:100C50000E942C03CE010E949A05A82FB92FB983B8
:100C6000A883ED91FC9111970280F381E02DBE01E4
:100C7000CD010995CE010E94B502DF91CF91089573
:100C8000CF93DF93C62FD72F493040F4E42F49305C
:100C900010F5F0E0E759F64F0C9424094838D9F4E0
:100CA000CE010E947E04A82FB92FB983A883ED91AD
:100CB000FC9111970280F381E02DBE01CD010995D1
:100CC000CE010E94B50207C08A8191E089278A83FC
:100CD000CE010E94B502DF91CF9108958B818A7A6F
:100CE00021E030E002C0220F331F4A95E2F7822B49
:100CF0008B8388819981DC01ED91FC910280F381E5
:100D0000E02DBE010995CE010E94B502E4CF8B8192
:100D1000857521E030E002C0220F331F4A95E2F7CB
:100D2000822B8B830E941E04682F41E0CE010E941B
:100D30002C03CE010E949A05A82FB92FB983A8834E
:100D4000ED91FC9111970280F381E02DBE01CD0160
:100D50000995CE010E94B502BECF8091B0018111EC
:100D600009C088E691E09093B9018093B80181E0D1
:100D70008093B00188EB91E00895CF93DF93C62F65
:100D8000D72F493040F4E42F493010F5F0E0EE5809
:100D9000F64F0C9424094838D9F4CE010E947E0401
:100DA000A82FB92FB983A883ED91FC9111970280E8
:100DB000F381E02DBE01CD010995CE010E94B5025F
:100DC00007C08A8191E089278A83CE010E94B502FB
:100DD000DF91CF9108958B818A7A21E030E002C0C3
:100DE000220F331F4A95E2F7822B8B83CE010E949C
:100DF000AD06A82FB92FB983A883ED91FC91119767
:100E00000280F381E02DBE01CD010995CE010E9443
:100E1000B502DECF8B81857521E030E002C0220F64
:100E2000331F4A95E2F7822B8B830E941E04682FA2
:100E300041E0CE010E942C03CE010E949A05A82F0A
:100E4000B92FB983A883ED91FC9111970280F381AA
:100E5000E02DBE01CD010995CE010E94B502B8CFAB
:100E6000CF93DF93C62FD72F493040F4E42F49307A
:100E700028F5F0E0E558F64F0C942409483809F4B9
:100E80006EC04B38D9F4CE010E94E504A82FB92FCB
:100E9000B983A883ED91FC9111970280F381E02D35
:100EA000BE01CD010995CE010E94B50207C08A811D
:100EB00091E089278A83CE010E94B502DF91CF910C
:100EC00008952B81822F90E080959095042E02C08A
:100ED000959587950A94E2F780FFF0CF2A7A81E012
:100EE00090E002C0880F991F4A95E2F7282B2B83C8
:100EF000CE010E94AD06A82FB92FB983A883ED912A
:100F0000FC9111970280F381E02DBE01CD0109957E
:100F1000CE010E94B502D2CF8B81982F957571F2C8
:100F2000892F21E030E002C0220F331F4A95E2F7FB
:100F3000822B8B830E941E04682F41E0CE010E9409
:100F40002C0388819981DC01ED91FC910280F38171
:100F5000E02DBE010995CE010E94B502AFCFCE01B2
:100F60000E947E04A82FB92FB983A883ED91FC912C
:100F700011970280F381E02DBE01CD010995CE01CC
:100F80000E94B5029BCF8AEF90E0909389008093F6
:100F90008800E1E8F0E08081836080838081886060
:100FA0008083EFE6F0E080818260808308958F93F4
:100FB00081E08093EC018F9118951F920F920FB6EC
:100FC0000F9211242F933F934F935F936F937F93CF
:100FD0008F939F93AF93BF93CF93DF93EF93FF9341
:100FE0002091C6008091ED01823009F459C0E8F4E7
:100FF0008823B1F1EDEEF1E022A383E08083822F1C
:101000000E94F008FF91EF91DF91CF91BF91AF91D6
:101010009F918F917F916F915F914F913F912F9110
:101020000F900FBE0F901F901895833041F7CDEEB3
:10103000D1E02BA318823AA149A1898190E00196C1
:10104000FC01EE0FFF1FE80FF91FE351FE4F408335
:10105000318322836AE070E00E9410098983CFCF38
:1010600020930E02822F807F803CB1F078F4803A8A
:1010700019F030F0803B19F681E08093ED01BFCF8D
:10108000822F807E803809F0BACFF6CF803D21F0E4
:10109000803E09F0B4CFF0CF82E08093ED01AFCF76
:1010A000CDEED1E02AA3188239A1898190E0019682
:1010B000FC01EE0FFF1FE80FF91FE351FE4F3083D5
:1010C000218312826AE070E00E941009898397CF21
:1010D000CDB7DEB72A970FB6F894DEBF0FBECDBFEF
:1010E0000E94C3070E94E7080E9491000E947301BA
:1010F000CE0101960E947202CE0101960E94B502B5
:1011000078940DEE11E00F2EFAE0EF2EF12CF02D79
:1011100004C08091EC01811119C0F8012281818104
:101120008217B9F330E02F5F3F4FC901B7010E942A
:1011300010098283B901660F771F620F731F635115
:101140007E4FCE0101960E94AB02E3CF0E94770151
:101150000E94F201682FCE0101960E9496028091B2
:101160001102909112020196909312028093110243
:10117000843F914019F01092EC01CFCFCE0101963F
:101180000E94DF021092120210921102F4CFE0EFDF
:10119000F1E02EE032E080EF8083118212823396FC
:1011A000E217F307C9F7EDEEF1E011821282108227
:1011B00008958F7790E08D5F9F4F0E943E090895BC
:1011C0008F7790E08D5F9F4F0E944609089510929F
:1011D000C5008FE18093C40088E98093C100089521
:1011E000E0ECF0E0908195FFFDCF8093C60008957C
:1011F000CF93DF93C82FD92F88810E94F00889816F
:101200000E94F008DF91CF910895089580E008953D
:1012100082E0089582E008950895089581E0089598
:1012200097FB072E16F4009407D077FD09D00E9493
:101230002A0907FC05D03EF4909581959F4F0895AB
:10124000709561957F4F0895EE0FFF1F0590F49103
:10125000E02D0994AA1BBB1B51E107C0AA1FBB1FAD
:10126000A617B70710F0A61BB70B881F991F5A9532
:10127000A9F780959095BC01CD010895F999FECF0D
:1012800092BD81BDF89A992780B50895262FF999C6
:10129000FECF1FBA92BD81BD20BD0FB6F894FA9A59
:1012A000F99A0FBE01960895F894FFCF2E054A05CE
:1012B0002E054A052E054A052E054A057205230509
:1012C0008605CF05FC05CF05FC05CF05FC05CF0540
:1012D000FC056E0687066E0687066E0687066E0696
:1012E00087066406EB060A07EB060A07EB060A0701
:1012F000EB060A07E10661078C0761078C076107A7
:081300008C0761078C075707F9
:1013080003092181060C248412183090424860C0D9
:10131800000000000505610306090509D603000061
:1013280000008E0469030809B404D6030000000015
:10133800AA057E030A090C090D09000000003E04F5
:101348003E040E091F06D60300000000BD06700308
:101358000E091F06D60300000000300777030E09A8
:101368001F06D603000000004006CB030E091F0627
:02137800D6039A
:00000001FF
